{
  "contractName": "LandRegistration",
  "abi": [
    {
      "inputs": [],
      "stateMutability": "nonpayable",
      "type": "constructor"
    },
    {
      "anonymous": false,
      "inputs": [
        {
          "indexed": true,
          "internalType": "address",
          "name": "owner",
          "type": "address"
        },
        {
          "indexed": true,
          "internalType": "address",
          "name": "approved",
          "type": "address"
        },
        {
          "indexed": true,
          "internalType": "uint256",
          "name": "tokenId",
          "type": "uint256"
        }
      ],
      "name": "Approval",
      "type": "event"
    },
    {
      "anonymous": false,
      "inputs": [
        {
          "indexed": true,
          "internalType": "address",
          "name": "owner",
          "type": "address"
        },
        {
          "indexed": true,
          "internalType": "address",
          "name": "operator",
          "type": "address"
        },
        {
          "indexed": false,
          "internalType": "bool",
          "name": "approved",
          "type": "bool"
        }
      ],
      "name": "ApprovalForAll",
      "type": "event"
    },
    {
      "anonymous": false,
      "inputs": [
        {
          "indexed": false,
          "internalType": "uint256",
          "name": "landId",
          "type": "uint256"
        },
        {
          "indexed": false,
          "internalType": "address",
          "name": "buyer",
          "type": "address"
        }
      ],
      "name": "LandBought",
      "type": "event"
    },
    {
      "anonymous": false,
      "inputs": [
        {
          "indexed": false,
          "internalType": "uint256",
          "name": "landId",
          "type": "uint256"
        }
      ],
      "name": "LandCreated",
      "type": "event"
    },
    {
      "anonymous": false,
      "inputs": [
        {
          "indexed": false,
          "internalType": "uint256",
          "name": "landId",
          "type": "uint256"
        }
      ],
      "name": "LandPutOnSale",
      "type": "event"
    },
    {
      "anonymous": false,
      "inputs": [
        {
          "indexed": false,
          "internalType": "uint256",
          "name": "landId",
          "type": "uint256"
        }
      ],
      "name": "LandVerified",
      "type": "event"
    },
    {
      "anonymous": false,
      "inputs": [
        {
          "indexed": true,
          "internalType": "address",
          "name": "from",
          "type": "address"
        },
        {
          "indexed": true,
          "internalType": "address",
          "name": "to",
          "type": "address"
        },
        {
          "indexed": true,
          "internalType": "uint256",
          "name": "tokenId",
          "type": "uint256"
        }
      ],
      "name": "Transfer",
      "type": "event"
    },
    {
      "inputs": [],
      "name": "Inspector",
      "outputs": [
        {
          "internalType": "address",
          "name": "",
          "type": "address"
        }
      ],
      "stateMutability": "view",
      "type": "function"
    },
    {
      "inputs": [
        {
          "internalType": "address",
          "name": "to",
          "type": "address"
        },
        {
          "internalType": "uint256",
          "name": "tokenId",
          "type": "uint256"
        }
      ],
      "name": "approve",
      "outputs": [],
      "stateMutability": "nonpayable",
      "type": "function"
    },
    {
      "inputs": [
        {
          "internalType": "address",
          "name": "owner",
          "type": "address"
        }
      ],
      "name": "balanceOf",
      "outputs": [
        {
          "internalType": "uint256",
          "name": "",
          "type": "uint256"
        }
      ],
      "stateMutability": "view",
      "type": "function"
    },
    {
      "inputs": [
        {
          "internalType": "uint256",
          "name": "tokenId",
          "type": "uint256"
        }
      ],
      "name": "getApproved",
      "outputs": [
        {
          "internalType": "address",
          "name": "",
          "type": "address"
        }
      ],
      "stateMutability": "view",
      "type": "function"
    },
    {
      "inputs": [
        {
          "internalType": "address",
          "name": "owner",
          "type": "address"
        },
        {
          "internalType": "address",
          "name": "operator",
          "type": "address"
        }
      ],
      "name": "isApprovedForAll",
      "outputs": [
        {
          "internalType": "bool",
          "name": "",
          "type": "bool"
        }
      ],
      "stateMutability": "view",
      "type": "function"
    },
    {
      "inputs": [],
      "name": "landCount",
      "outputs": [
        {
          "internalType": "uint256",
          "name": "",
          "type": "uint256"
        }
      ],
      "stateMutability": "view",
      "type": "function"
    },
    {
      "inputs": [
        {
          "internalType": "uint256",
          "name": "",
          "type": "uint256"
        }
      ],
      "name": "lands",
      "outputs": [
        {
          "internalType": "uint256",
          "name": "area",
          "type": "uint256"
        },
        {
          "internalType": "uint256",
          "name": "cost",
          "type": "uint256"
        },
        {
          "internalType": "string",
          "name": "addressStr",
          "type": "string"
        },
        {
          "internalType": "address",
          "name": "owner",
          "type": "address"
        },
        {
          "internalType": "bool",
          "name": "isVerified",
          "type": "bool"
        },
        {
          "internalType": "bool",
          "name": "isForSale",
          "type": "bool"
        },
        {
          "internalType": "string",
          "name": "documentHash",
          "type": "string"
        },
        {
          "internalType": "string",
          "name": "imageHash",
          "type": "string"
        }
      ],
      "stateMutability": "view",
      "type": "function"
    },
    {
      "inputs": [],
      "name": "name",
      "outputs": [
        {
          "internalType": "string",
          "name": "",
          "type": "string"
        }
      ],
      "stateMutability": "view",
      "type": "function"
    },
    {
      "inputs": [
        {
          "internalType": "uint256",
          "name": "tokenId",
          "type": "uint256"
        }
      ],
      "name": "ownerOf",
      "outputs": [
        {
          "internalType": "address",
          "name": "",
          "type": "address"
        }
      ],
      "stateMutability": "view",
      "type": "function"
    },
    {
      "inputs": [
        {
          "internalType": "address",
          "name": "from",
          "type": "address"
        },
        {
          "internalType": "address",
          "name": "to",
          "type": "address"
        },
        {
          "internalType": "uint256",
          "name": "tokenId",
          "type": "uint256"
        }
      ],
      "name": "safeTransferFrom",
      "outputs": [],
      "stateMutability": "nonpayable",
      "type": "function"
    },
    {
      "inputs": [
        {
          "internalType": "address",
          "name": "from",
          "type": "address"
        },
        {
          "internalType": "address",
          "name": "to",
          "type": "address"
        },
        {
          "internalType": "uint256",
          "name": "tokenId",
          "type": "uint256"
        },
        {
          "internalType": "bytes",
          "name": "data",
          "type": "bytes"
        }
      ],
      "name": "safeTransferFrom",
      "outputs": [],
      "stateMutability": "nonpayable",
      "type": "function"
    },
    {
      "inputs": [
        {
          "internalType": "address",
          "name": "operator",
          "type": "address"
        },
        {
          "internalType": "bool",
          "name": "approved",
          "type": "bool"
        }
      ],
      "name": "setApprovalForAll",
      "outputs": [],
      "stateMutability": "nonpayable",
      "type": "function"
    },
    {
      "inputs": [
        {
          "internalType": "bytes4",
          "name": "interfaceId",
          "type": "bytes4"
        }
      ],
      "name": "supportsInterface",
      "outputs": [
        {
          "internalType": "bool",
          "name": "",
          "type": "bool"
        }
      ],
      "stateMutability": "view",
      "type": "function"
    },
    {
      "inputs": [],
      "name": "symbol",
      "outputs": [
        {
          "internalType": "string",
          "name": "",
          "type": "string"
        }
      ],
      "stateMutability": "view",
      "type": "function"
    },
    {
      "inputs": [
        {
          "internalType": "uint256",
          "name": "tokenId",
          "type": "uint256"
        }
      ],
      "name": "tokenURI",
      "outputs": [
        {
          "internalType": "string",
          "name": "",
          "type": "string"
        }
      ],
      "stateMutability": "view",
      "type": "function"
    },
    {
      "inputs": [
        {
          "internalType": "address",
          "name": "from",
          "type": "address"
        },
        {
          "internalType": "address",
          "name": "to",
          "type": "address"
        },
        {
          "internalType": "uint256",
          "name": "tokenId",
          "type": "uint256"
        }
      ],
      "name": "transferFrom",
      "outputs": [],
      "stateMutability": "nonpayable",
      "type": "function"
    },
    {
      "inputs": [
        {
          "internalType": "uint256",
          "name": "area",
          "type": "uint256"
        },
        {
          "internalType": "uint256",
          "name": "cost",
          "type": "uint256"
        },
        {
          "internalType": "string",
          "name": "addressStr",
          "type": "string"
        },
        {
          "internalType": "string",
          "name": "documentHash",
          "type": "string"
        },
        {
          "internalType": "string",
          "name": "imageHash",
          "type": "string"
        }
      ],
      "name": "createLand",
      "outputs": [],
      "stateMutability": "nonpayable",
      "type": "function"
    },
    {
      "inputs": [
        {
          "internalType": "uint256",
          "name": "landId",
          "type": "uint256"
        }
      ],
      "name": "verifyLand",
      "outputs": [],
      "stateMutability": "nonpayable",
      "type": "function"
    },
    {
      "inputs": [
        {
          "internalType": "uint256",
          "name": "landId",
          "type": "uint256"
        }
      ],
      "name": "putLandOnSale",
      "outputs": [],
      "stateMutability": "nonpayable",
      "type": "function"
    },
    {
      "inputs": [
        {
          "internalType": "uint256",
          "name": "landId",
          "type": "uint256"
        }
      ],
      "name": "buyLand",
      "outputs": [],
      "stateMutability": "payable",
      "type": "function"
    },
    {
      "inputs": [
        {
          "internalType": "uint256",
          "name": "landId",
          "type": "uint256"
        },
        {
          "internalType": "uint256",
          "name": "cost",
          "type": "uint256"
        },
        {
          "internalType": "string",
          "name": "documentHash",
          "type": "string"
        }
      ],
      "name": "sellLand",
      "outputs": [],
      "stateMutability": "nonpayable",
      "type": "function"
    },
    {
      "inputs": [
        {
          "internalType": "uint256",
          "name": "landId",
          "type": "uint256"
        }
      ],
      "name": "getLandDetails",
      "outputs": [
        {
          "internalType": "uint256",
          "name": "area",
          "type": "uint256"
        },
        {
          "internalType": "uint256",
          "name": "cost",
          "type": "uint256"
        },
        {
          "internalType": "string",
          "name": "addressStr",
          "type": "string"
        },
        {
          "internalType": "string",
          "name": "documentHash",
          "type": "string"
        },
        {
          "internalType": "string",
          "name": "imageHash",
          "type": "string"
        },
        {
          "internalType": "address",
          "name": "owner",
          "type": "address"
        },
        {
          "internalType": "bool",
          "name": "isVerified",
          "type": "bool"
        },
        {
          "internalType": "bool",
          "name": "isForSale",
          "type": "bool"
        }
      ],
      "stateMutability": "view",
      "type": "function"
    }
  ],
  "bytecode": "0x608060405273076df2f4567bd872964baa8354e07370fe634f3f600660006101000a81548173ffffffffffffffffffffffffffffffffffffffff021916908373ffffffffffffffffffffffffffffffffffffffff16021790555060006008553480156200006b57600080fd5b506040518060400160405280601081526020017f4c616e64526567697374726174696f6e000000000000000000000000000000008152506040518060400160405280600481526020017f4c414e44000000000000000000000000000000000000000000000000000000008152508160009081620000e991906200037e565b508060019081620000fb91906200037e565b50505062000465565b600081519050919050565b7f4e487b7100000000000000000000000000000000000000000000000000000000600052604160045260246000fd5b7f4e487b7100000000000000000000000000000000000000000000000000000000600052602260045260246000fd5b600060028204905060018216806200018657607f821691505b6020821081036200019c576200019b6200013e565b5b50919050565b60008190508160005260206000209050919050565b60006020601f8301049050919050565b600082821b905092915050565b600060088302620002067fffffffffffffffffffffffffffffffffffffffffffffffffffffffffffffffff82620001c7565b620002128683620001c7565b95508019841693508086168417925050509392505050565b6000819050919050565b6000819050919050565b60006200025f6200025962000253846200022a565b62000234565b6200022a565b9050919050565b6000819050919050565b6200027b836200023e565b620002936200028a8262000266565b848454620001d4565b825550505050565b600090565b620002aa6200029b565b620002b781848462000270565b505050565b5b81811015620002df57620002d3600082620002a0565b600181019050620002bd565b5050565b601f8211156200032e57620002f881620001a2565b6200030384620001b7565b8101602085101562000313578190505b6200032b6200032285620001b7565b830182620002bc565b50505b505050565b600082821c905092915050565b6000620003536000198460080262000333565b1980831691505092915050565b60006200036e838362000340565b9150826002028217905092915050565b620003898262000104565b67ffffffffffffffff811115620003a557620003a46200010f565b5b620003b182546200016d565b620003be828285620002e3565b600060209050601f831160018114620003f65760008415620003e1578287015190505b620003ed858262000360565b8655506200045d565b601f1984166200040686620001a2565b60005b82811015620004305784890151825560018201915060208501945060208101905062000409565b868310156200045057848901516200044c601f89168262000340565b8355505b6001600288020188555050505b505050505050565b613db580620004756000396000f3fe6080604052600436106101355760003560e01c8063a22cb465116100ab578063d7bce6581161006f578063d7bce65814610425578063e261f1e514610450578063e985e9c514610494578063f3535764146104d1578063f9c43bdf146104fc578063fe0cb7dc1461052557610135565b8063a22cb46514610351578063b88d4fde1461037a578063ba009bb2146103a3578063c87b56dd146103cc578063ced395581461040957610135565b806323b872dd116100fd57806323b872dd1461023157806342842e0e1461025a5780636352211e1461028357806370a08231146102c05780639365aca4146102fd57806395d89b411461032657610135565b806301ffc9a71461013a57806306fdde0314610177578063081812fc146101a2578063095ea7b3146101df57806311b6d68f14610208575b600080fd5b34801561014657600080fd5b50610161600480360381019061015c9190612702565b610569565b60405161016e919061274a565b60405180910390f35b34801561018357600080fd5b5061018c61064b565b60405161019991906127f5565b60405180910390f35b3480156101ae57600080fd5b506101c960048036038101906101c4919061284d565b6106dd565b6040516101d691906128bb565b60405180910390f35b3480156101eb57600080fd5b5061020660048036038101906102019190612902565b610723565b005b34801561021457600080fd5b5061022f600480360381019061022a9190612a77565b61083a565b005b34801561023d57600080fd5b5061025860048036038101906102539190612ae6565b6109f4565b005b34801561026657600080fd5b50610281600480360381019061027c9190612ae6565b610a54565b005b34801561028f57600080fd5b506102aa60048036038101906102a5919061284d565b610a74565b6040516102b791906128bb565b60405180910390f35b3480156102cc57600080fd5b506102e760048036038101906102e29190612b39565b610afa565b6040516102f49190612b75565b60405180910390f35b34801561030957600080fd5b50610324600480360381019061031f9190612b90565b610bb1565b005b34801561033257600080fd5b5061033b610d60565b60405161034891906127f5565b60405180910390f35b34801561035d57600080fd5b5061037860048036038101906103739190612c8b565b610df2565b005b34801561038657600080fd5b506103a1600480360381019061039c9190612d6c565b610e08565b005b3480156103af57600080fd5b506103ca60048036038101906103c5919061284d565b610e6a565b005b3480156103d857600080fd5b506103f360048036038101906103ee919061284d565b610fe3565b60405161040091906127f5565b60405180910390f35b610423600480360381019061041e919061284d565b61104b565b005b34801561043157600080fd5b5061043a6112ff565b6040516104479190612b75565b60405180910390f35b34801561045c57600080fd5b506104776004803603810190610472919061284d565b611305565b60405161048b989796959493929190612def565b60405180910390f35b3480156104a057600080fd5b506104bb60048036038101906104b69190612e82565b61151f565b6040516104c8919061274a565b60405180910390f35b3480156104dd57600080fd5b506104e66115b3565b6040516104f391906128bb565b60405180910390f35b34801561050857600080fd5b50610523600480360381019061051e919061284d565b6115d9565b005b34801561053157600080fd5b5061054c6004803603810190610547919061284d565b6116d2565b604051610560989796959493929190612ec2565b60405180910390f35b60007f80ac58cd000000000000000000000000000000000000000000000000000000007bffffffffffffffffffffffffffffffffffffffffffffffffffffffff1916827bffffffffffffffffffffffffffffffffffffffffffffffffffffffff1916148061063457507f5b5e139f000000000000000000000000000000000000000000000000000000007bffffffffffffffffffffffffffffffffffffffffffffffffffffffff1916827bffffffffffffffffffffffffffffffffffffffffffffffffffffffff1916145b80610644575061064382611941565b5b9050919050565b60606000805461065a90612f84565b80601f016020809104026020016040519081016040528092919081815260200182805461068690612f84565b80156106d35780601f106106a8576101008083540402835291602001916106d3565b820191906000526020600020905b8154815290600101906020018083116106b657829003601f168201915b5050505050905090565b60006106e8826119ab565b6004600083815260200190815260200160002060009054906101000a900473ffffffffffffffffffffffffffffffffffffffff169050919050565b600061072e82610a74565b90508073ffffffffffffffffffffffffffffffffffffffff168373ffffffffffffffffffffffffffffffffffffffff160361079e576040517f08c379a000000000000000000000000000000000000000000000000000000000815260040161079590613027565b60405180910390fd5b8073ffffffffffffffffffffffffffffffffffffffff166107bd6119f6565b73ffffffffffffffffffffffffffffffffffffffff1614806107ec57506107eb816107e66119f6565b61151f565b5b61082b576040517f08c379a0000000000000000000000000000000000000000000000000000000008152600401610822906130b9565b60405180910390fd5b61083583836119fe565b505050565b823373ffffffffffffffffffffffffffffffffffffffff166007600083815260200190815260200160002060030160009054906101000a900473ffffffffffffffffffffffffffffffffffffffff1673ffffffffffffffffffffffffffffffffffffffff16146108df576040517f08c379a00000000000000000000000000000000000000000000000000000000081526004016108d69061314b565b60405180910390fd5b600115156007600086815260200190815260200160002060030160149054906101000a900460ff16151514610949576040517f08c379a0000000000000000000000000000000000000000000000000000000008152600401610940906131dd565b60405180910390fd5b8260076000868152602001908152602001600020600101819055508160076000868152602001908152602001600020600401908161098791906133a9565b5060016007600086815260200190815260200160002060030160156101000a81548160ff0219169083151502179055507f52c4bdb200932ce69685c6979e27a9b94549e77f6d9c546d9d15d534fb7c4ed6846040516109e69190612b75565b60405180910390a150505050565b610a056109ff6119f6565b82611ab7565b610a44576040517f08c379a0000000000000000000000000000000000000000000000000000000008152600401610a3b906134ed565b60405180910390fd5b610a4f838383611b4c565b505050565b610a6f83838360405180602001604052806000815250610e08565b505050565b600080610a8083611e45565b9050600073ffffffffffffffffffffffffffffffffffffffff168173ffffffffffffffffffffffffffffffffffffffff1603610af1576040517f08c379a0000000000000000000000000000000000000000000000000000000008152600401610ae890613559565b60405180910390fd5b80915050919050565b60008073ffffffffffffffffffffffffffffffffffffffff168273ffffffffffffffffffffffffffffffffffffffff1603610b6a576040517f08c379a0000000000000000000000000000000000000000000000000000000008152600401610b61906135eb565b60405180910390fd5b600360008373ffffffffffffffffffffffffffffffffffffffff1673ffffffffffffffffffffffffffffffffffffffff168152602001908152602001600020549050919050565b60086000815480929190610bc49061363a565b91905055506040518061010001604052808681526020018581526020018481526020013373ffffffffffffffffffffffffffffffffffffffff1681526020016000151581526020016000151581526020018381526020018281525060076000600854815260200190815260200160002060008201518160000155602082015181600101556040820151816002019081610c5d91906133a9565b5060608201518160030160006101000a81548173ffffffffffffffffffffffffffffffffffffffff021916908373ffffffffffffffffffffffffffffffffffffffff16021790555060808201518160030160146101000a81548160ff02191690831515021790555060a08201518160030160156101000a81548160ff02191690831515021790555060c0820151816004019081610cfa91906133a9565b5060e0820151816005019081610d1091906133a9565b50905050610d2033600854611e82565b7f6967855d7c9dc8d3317bc4dd9329c2cb21eb3c3f31f600d6f963075f50297884600854604051610d519190612b75565b60405180910390a15050505050565b606060018054610d6f90612f84565b80601f0160208091040260200160405190810160405280929190818152602001828054610d9b90612f84565b8015610de85780601f10610dbd57610100808354040283529160200191610de8565b820191906000526020600020905b815481529060010190602001808311610dcb57829003601f168201915b5050505050905090565b610e04610dfd6119f6565b838361209f565b5050565b610e19610e136119f6565b83611ab7565b610e58576040517f08c379a0000000000000000000000000000000000000000000000000000000008152600401610e4f906134ed565b60405180910390fd5b610e648484848461220b565b50505050565b803373ffffffffffffffffffffffffffffffffffffffff166007600083815260200190815260200160002060030160009054906101000a900473ffffffffffffffffffffffffffffffffffffffff1673ffffffffffffffffffffffffffffffffffffffff1614610f0f576040517f08c379a0000000000000000000000000000000000000000000000000000000008152600401610f069061314b565b60405180910390fd5b600115156007600084815260200190815260200160002060030160149054906101000a900460ff16151514610f79576040517f08c379a0000000000000000000000000000000000000000000000000000000008152600401610f70906131dd565b60405180910390fd5b60016007600084815260200190815260200160002060030160156101000a81548160ff0219169083151502179055507f52c4bdb200932ce69685c6979e27a9b94549e77f6d9c546d9d15d534fb7c4ed682604051610fd79190612b75565b60405180910390a15050565b6060610fee826119ab565b6000610ff8612267565b905060008151116110185760405180602001604052806000815250611043565b806110228461227e565b6040516020016110339291906136be565b6040516020818303038152906040525b915050919050565b3373ffffffffffffffffffffffffffffffffffffffff166007600083815260200190815260200160002060030160009054906101000a900473ffffffffffffffffffffffffffffffffffffffff1673ffffffffffffffffffffffffffffffffffffffff16036110ef576040517f08c379a00000000000000000000000000000000000000000000000000000000081526004016110e69061372e565b60405180910390fd5b600115156007600083815260200190815260200160002060030160159054906101000a900460ff16151514611159576040517f08c379a00000000000000000000000000000000000000000000000000000000081526004016111509061379a565b60405180910390fd5b600760008281526020019081526020016000206001015434146111b1576040517f08c379a00000000000000000000000000000000000000000000000000000000081526004016111a89061382c565b60405180910390fd5b60006007600083815260200190815260200160002060030160009054906101000a900473ffffffffffffffffffffffffffffffffffffffff1690508073ffffffffffffffffffffffffffffffffffffffff166108fc349081150290604051600060405180830381858888f19350505050158015611232573d6000803e3d6000fd5b5061123e813384611b4c565b336007600084815260200190815260200160002060030160006101000a81548173ffffffffffffffffffffffffffffffffffffffff021916908373ffffffffffffffffffffffffffffffffffffffff16021790555060006007600084815260200190815260200160002060030160156101000a81548160ff0219169083151502179055507f0a7e3fef882dfc96c670f48eb8635389903aedaa920310326b774914cd19b0d382336040516112f392919061384c565b60405180910390a15050565b60085481565b600760205280600052604060002060009150905080600001549080600101549080600201805461133490612f84565b80601f016020809104026020016040519081016040528092919081815260200182805461136090612f84565b80156113ad5780601f10611382576101008083540402835291602001916113ad565b820191906000526020600020905b81548152906001019060200180831161139057829003601f168201915b5050505050908060030160009054906101000a900473ffffffffffffffffffffffffffffffffffffffff16908060030160149054906101000a900460ff16908060030160159054906101000a900460ff169080600401805461140e90612f84565b80601f016020809104026020016040519081016040528092919081815260200182805461143a90612f84565b80156114875780601f1061145c57610100808354040283529160200191611487565b820191906000526020600020905b81548152906001019060200180831161146a57829003601f168201915b50505050509080600501805461149c90612f84565b80601f01602080910402602001604051908101604052809291908181526020018280546114c890612f84565b80156115155780601f106114ea57610100808354040283529160200191611515565b820191906000526020600020905b8154815290600101906020018083116114f857829003601f168201915b5050505050905088565b6000600560008473ffffffffffffffffffffffffffffffffffffffff1673ffffffffffffffffffffffffffffffffffffffff16815260200190815260200160002060008373ffffffffffffffffffffffffffffffffffffffff1673ffffffffffffffffffffffffffffffffffffffff16815260200190815260200160002060009054906101000a900460ff16905092915050565b600660009054906101000a900473ffffffffffffffffffffffffffffffffffffffff1681565b3373ffffffffffffffffffffffffffffffffffffffff16600660009054906101000a900473ffffffffffffffffffffffffffffffffffffffff1673ffffffffffffffffffffffffffffffffffffffff1614611669576040517f08c379a0000000000000000000000000000000000000000000000000000000008152600401611660906138e7565b60405180910390fd5b60016007600083815260200190815260200160002060030160146101000a81548160ff0219169083151502179055507f339a5d26292b459dbd1a911e53069f56bd3610e5ca60a312043fc90189c388bf816040516116c79190612b75565b60405180910390a150565b600080606080606060008060006116e88961234c565b611727576040517f08c379a000000000000000000000000000000000000000000000000000000000815260040161171e90613953565b60405180910390fd5b6000600760008b815260200190815260200160002090508060000154816001015482600201836004018460050161175d8f610a74565b8660030160149054906101000a900460ff168760030160159054906101000a900460ff1685805461178d90612f84565b80601f01602080910402602001604051908101604052809291908181526020018280546117b990612f84565b80156118065780601f106117db57610100808354040283529160200191611806565b820191906000526020600020905b8154815290600101906020018083116117e957829003601f168201915b5050505050955084805461181990612f84565b80601f016020809104026020016040519081016040528092919081815260200182805461184590612f84565b80156118925780601f1061186757610100808354040283529160200191611892565b820191906000526020600020905b81548152906001019060200180831161187557829003601f168201915b505050505094508380546118a590612f84565b80601f01602080910402602001604051908101604052809291908181526020018280546118d190612f84565b801561191e5780601f106118f35761010080835404028352916020019161191e565b820191906000526020600020905b81548152906001019060200180831161190157829003601f168201915b505050505093509850985098509850985098509850985050919395975091939597565b60007f01ffc9a7000000000000000000000000000000000000000000000000000000007bffffffffffffffffffffffffffffffffffffffffffffffffffffffff1916827bffffffffffffffffffffffffffffffffffffffffffffffffffffffff1916149050919050565b6119b48161234c565b6119f3576040517f08c379a00000000000000000000000000000000000000000000000000000000081526004016119ea90613559565b60405180910390fd5b50565b600033905090565b816004600083815260200190815260200160002060006101000a81548173ffffffffffffffffffffffffffffffffffffffff021916908373ffffffffffffffffffffffffffffffffffffffff160217905550808273ffffffffffffffffffffffffffffffffffffffff16611a7183610a74565b73ffffffffffffffffffffffffffffffffffffffff167f8c5be1e5ebec7d5bd14f71427d1e84f3dd0314c0f7b2291e5b200ac8c7c3b92560405160405180910390a45050565b600080611ac383610a74565b90508073ffffffffffffffffffffffffffffffffffffffff168473ffffffffffffffffffffffffffffffffffffffff161480611b055750611b04818561151f565b5b80611b4357508373ffffffffffffffffffffffffffffffffffffffff16611b2b846106dd565b73ffffffffffffffffffffffffffffffffffffffff16145b91505092915050565b8273ffffffffffffffffffffffffffffffffffffffff16611b6c82610a74565b73ffffffffffffffffffffffffffffffffffffffff1614611bc2576040517f08c379a0000000000000000000000000000000000000000000000000000000008152600401611bb9906139e5565b60405180910390fd5b600073ffffffffffffffffffffffffffffffffffffffff168273ffffffffffffffffffffffffffffffffffffffff1603611c31576040517f08c379a0000000000000000000000000000000000000000000000000000000008152600401611c2890613a77565b60405180910390fd5b611c3e838383600161238d565b8273ffffffffffffffffffffffffffffffffffffffff16611c5e82610a74565b73ffffffffffffffffffffffffffffffffffffffff1614611cb4576040517f08c379a0000000000000000000000000000000000000000000000000000000008152600401611cab906139e5565b60405180910390fd5b6004600082815260200190815260200160002060006101000a81549073ffffffffffffffffffffffffffffffffffffffff02191690556001600360008573ffffffffffffffffffffffffffffffffffffffff1673ffffffffffffffffffffffffffffffffffffffff168152602001908152602001600020600082825403925050819055506001600360008473ffffffffffffffffffffffffffffffffffffffff1673ffffffffffffffffffffffffffffffffffffffff16815260200190815260200160002060008282540192505081905550816002600083815260200190815260200160002060006101000a81548173ffffffffffffffffffffffffffffffffffffffff021916908373ffffffffffffffffffffffffffffffffffffffff160217905550808273ffffffffffffffffffffffffffffffffffffffff168473ffffffffffffffffffffffffffffffffffffffff167fddf252ad1be2c89b69c2b068fc378daa952ba7f163c4a11628f55a4df523b3ef60405160405180910390a4611e408383836001612393565b505050565b60006002600083815260200190815260200160002060009054906101000a900473ffffffffffffffffffffffffffffffffffffffff169050919050565b600073ffffffffffffffffffffffffffffffffffffffff168273ffffffffffffffffffffffffffffffffffffffff1603611ef1576040517f08c379a0000000000000000000000000000000000000000000000000000000008152600401611ee890613ae3565b60405180910390fd5b611efa8161234c565b15611f3a576040517f08c379a0000000000000000000000000000000000000000000000000000000008152600401611f3190613b4f565b60405180910390fd5b611f4860008383600161238d565b611f518161234c565b15611f91576040517f08c379a0000000000000000000000000000000000000000000000000000000008152600401611f8890613b4f565b60405180910390fd5b6001600360008473ffffffffffffffffffffffffffffffffffffffff1673ffffffffffffffffffffffffffffffffffffffff16815260200190815260200160002060008282540192505081905550816002600083815260200190815260200160002060006101000a81548173ffffffffffffffffffffffffffffffffffffffff021916908373ffffffffffffffffffffffffffffffffffffffff160217905550808273ffffffffffffffffffffffffffffffffffffffff16600073ffffffffffffffffffffffffffffffffffffffff167fddf252ad1be2c89b69c2b068fc378daa952ba7f163c4a11628f55a4df523b3ef60405160405180910390a461209b600083836001612393565b5050565b8173ffffffffffffffffffffffffffffffffffffffff168373ffffffffffffffffffffffffffffffffffffffff160361210d576040517f08c379a000000000000000000000000000000000000000000000000000000000815260040161210490613bbb565b60405180910390fd5b80600560008573ffffffffffffffffffffffffffffffffffffffff1673ffffffffffffffffffffffffffffffffffffffff16815260200190815260200160002060008473ffffffffffffffffffffffffffffffffffffffff1673ffffffffffffffffffffffffffffffffffffffff16815260200190815260200160002060006101000a81548160ff0219169083151502179055508173ffffffffffffffffffffffffffffffffffffffff168373ffffffffffffffffffffffffffffffffffffffff167f17307eab39ab6107e8899845ad3d59bd9653f200f220920489ca2b5937696c31836040516121fe919061274a565b60405180910390a3505050565b612216848484611b4c565b61222284848484612399565b612261576040517f08c379a000000000000000000000000000000000000000000000000000000000815260040161225890613c4d565b60405180910390fd5b50505050565b606060405180602001604052806000815250905090565b60606000600161228d84612520565b01905060008167ffffffffffffffff8111156122ac576122ab61294c565b5b6040519080825280601f01601f1916602001820160405280156122de5781602001600182028036833780820191505090505b509050600082602001820190505b600115612341578080600190039150507f3031323334353637383961626364656600000000000000000000000000000000600a86061a8153600a858161233557612334613c6d565b5b049450600085036122ec575b819350505050919050565b60008073ffffffffffffffffffffffffffffffffffffffff1661236e83611e45565b73ffffffffffffffffffffffffffffffffffffffff1614159050919050565b50505050565b50505050565b60006123ba8473ffffffffffffffffffffffffffffffffffffffff16612673565b15612513578373ffffffffffffffffffffffffffffffffffffffff1663150b7a026123e36119f6565b8786866040518563ffffffff1660e01b81526004016124059493929190613cf1565b6020604051808303816000875af192505050801561244157506040513d601f19601f8201168201806040525081019061243e9190613d52565b60015b6124c3573d8060008114612471576040519150601f19603f3d011682016040523d82523d6000602084013e612476565b606091505b5060008151036124bb576040517f08c379a00000000000000000000000000000000000000000000000000000000081526004016124b290613c4d565b60405180910390fd5b805181602001fd5b63150b7a0260e01b7bffffffffffffffffffffffffffffffffffffffffffffffffffffffff1916817bffffffffffffffffffffffffffffffffffffffffffffffffffffffff191614915050612518565b600190505b949350505050565b600080600090507a184f03e93ff9f4daa797ed6e38ed64bf6a1f010000000000000000831061257e577a184f03e93ff9f4daa797ed6e38ed64bf6a1f010000000000000000838161257457612573613c6d565b5b0492506040810190505b6d04ee2d6d415b85acef810000000083106125bb576d04ee2d6d415b85acef810000000083816125b1576125b0613c6d565b5b0492506020810190505b662386f26fc1000083106125ea57662386f26fc1000083816125e0576125df613c6d565b5b0492506010810190505b6305f5e1008310612613576305f5e100838161260957612608613c6d565b5b0492506008810190505b612710831061263857612710838161262e5761262d613c6d565b5b0492506004810190505b6064831061265b576064838161265157612650613c6d565b5b0492506002810190505b600a831061266a576001810190505b80915050919050565b6000808273ffffffffffffffffffffffffffffffffffffffff163b119050919050565b6000604051905090565b600080fd5b600080fd5b60007fffffffff0000000000000000000000000000000000000000000000000000000082169050919050565b6126df816126aa565b81146126ea57600080fd5b50565b6000813590506126fc816126d6565b92915050565b600060208284031215612718576127176126a0565b5b6000612726848285016126ed565b91505092915050565b60008115159050919050565b6127448161272f565b82525050565b600060208201905061275f600083018461273b565b92915050565b600081519050919050565b600082825260208201905092915050565b60005b8381101561279f578082015181840152602081019050612784565b60008484015250505050565b6000601f19601f8301169050919050565b60006127c782612765565b6127d18185612770565b93506127e1818560208601612781565b6127ea816127ab565b840191505092915050565b6000602082019050818103600083015261280f81846127bc565b905092915050565b6000819050919050565b61282a81612817565b811461283557600080fd5b50565b60008135905061284781612821565b92915050565b600060208284031215612863576128626126a0565b5b600061287184828501612838565b91505092915050565b600073ffffffffffffffffffffffffffffffffffffffff82169050919050565b60006128a58261287a565b9050919050565b6128b58161289a565b82525050565b60006020820190506128d060008301846128ac565b92915050565b6128df8161289a565b81146128ea57600080fd5b50565b6000813590506128fc816128d6565b92915050565b60008060408385031215612919576129186126a0565b5b6000612927858286016128ed565b925050602061293885828601612838565b9150509250929050565b600080fd5b600080fd5b7f4e487b7100000000000000000000000000000000000000000000000000000000600052604160045260246000fd5b612984826127ab565b810181811067ffffffffffffffff821117156129a3576129a261294c565b5b80604052505050565b60006129b6612696565b90506129c2828261297b565b919050565b600067ffffffffffffffff8211156129e2576129e161294c565b5b6129eb826127ab565b9050602081019050919050565b82818337600083830152505050565b6000612a1a612a15846129c7565b6129ac565b905082815260208101848484011115612a3657612a35612947565b5b612a418482856129f8565b509392505050565b600082601f830112612a5e57612a5d612942565b5b8135612a6e848260208601612a07565b91505092915050565b600080600060608486031215612a9057612a8f6126a0565b5b6000612a9e86828701612838565b9350506020612aaf86828701612838565b925050604084013567ffffffffffffffff811115612ad057612acf6126a5565b5b612adc86828701612a49565b9150509250925092565b600080600060608486031215612aff57612afe6126a0565b5b6000612b0d868287016128ed565b9350506020612b1e868287016128ed565b9250506040612b2f86828701612838565b9150509250925092565b600060208284031215612b4f57612b4e6126a0565b5b6000612b5d848285016128ed565b91505092915050565b612b6f81612817565b82525050565b6000602082019050612b8a6000830184612b66565b92915050565b600080600080600060a08688031215612bac57612bab6126a0565b5b6000612bba88828901612838565b9550506020612bcb88828901612838565b945050604086013567ffffffffffffffff811115612bec57612beb6126a5565b5b612bf888828901612a49565b935050606086013567ffffffffffffffff811115612c1957612c186126a5565b5b612c2588828901612a49565b925050608086013567ffffffffffffffff811115612c4657612c456126a5565b5b612c5288828901612a49565b9150509295509295909350565b612c688161272f565b8114612c7357600080fd5b50565b600081359050612c8581612c5f565b92915050565b60008060408385031215612ca257612ca16126a0565b5b6000612cb0858286016128ed565b9250506020612cc185828601612c76565b9150509250929050565b600067ffffffffffffffff821115612ce657612ce561294c565b5b612cef826127ab565b9050602081019050919050565b6000612d0f612d0a84612ccb565b6129ac565b905082815260208101848484011115612d2b57612d2a612947565b5b612d368482856129f8565b509392505050565b600082601f830112612d5357612d52612942565b5b8135612d63848260208601612cfc565b91505092915050565b60008060008060808587031215612d8657612d856126a0565b5b6000612d94878288016128ed565b9450506020612da5878288016128ed565b9350506040612db687828801612838565b925050606085013567ffffffffffffffff811115612dd757612dd66126a5565b5b612de387828801612d3e565b91505092959194509250565b600061010082019050612e05600083018b612b66565b612e12602083018a612b66565b8181036040830152612e2481896127bc565b9050612e3360608301886128ac565b612e40608083018761273b565b612e4d60a083018661273b565b81810360c0830152612e5f81856127bc565b905081810360e0830152612e7381846127bc565b90509998505050505050505050565b60008060408385031215612e9957612e986126a0565b5b6000612ea7858286016128ed565b9250506020612eb8858286016128ed565b9150509250929050565b600061010082019050612ed8600083018b612b66565b612ee5602083018a612b66565b8181036040830152612ef781896127bc565b90508181036060830152612f0b81886127bc565b90508181036080830152612f1f81876127bc565b9050612f2e60a08301866128ac565b612f3b60c083018561273b565b612f4860e083018461273b565b9998505050505050505050565b7f4e487b7100000000000000000000000000000000000000000000000000000000600052602260045260246000fd5b60006002820490506001821680612f9c57607f821691505b602082108103612faf57612fae612f55565b5b50919050565b7f4552433732313a20617070726f76616c20746f2063757272656e74206f776e6560008201527f7200000000000000000000000000000000000000000000000000000000000000602082015250565b6000613011602183612770565b915061301c82612fb5565b604082019050919050565b6000602082019050818103600083015261304081613004565b9050919050565b7f4552433732313a20617070726f76652063616c6c6572206973206e6f7420746f60008201527f6b656e206f776e6572206f7220617070726f76656420666f7220616c6c000000602082015250565b60006130a3603d83612770565b91506130ae82613047565b604082019050919050565b600060208201905081810360008301526130d281613096565b9050919050565b7f4f6e6c79206c616e64206f776e65722063616e20707574206c616e64206f6e2060008201527f73616c6500000000000000000000000000000000000000000000000000000000602082015250565b6000613135602483612770565b9150613140826130d9565b604082019050919050565b6000602082019050818103600083015261316481613128565b9050919050565b7f4c616e64206d757374206265207665726966696564206265666f72652070757460008201527f74696e67206974206f6e2073616c650000000000000000000000000000000000602082015250565b60006131c7602f83612770565b91506131d28261316b565b604082019050919050565b600060208201905081810360008301526131f6816131ba565b9050919050565b60008190508160005260206000209050919050565b60006020601f8301049050919050565b600082821b905092915050565b60006008830261325f7fffffffffffffffffffffffffffffffffffffffffffffffffffffffffffffffff82613222565b6132698683613222565b95508019841693508086168417925050509392505050565b6000819050919050565b60006132a66132a161329c84612817565b613281565b612817565b9050919050565b6000819050919050565b6132c08361328b565b6132d46132cc826132ad565b84845461322f565b825550505050565b600090565b6132e96132dc565b6132f48184846132b7565b505050565b5b818110156133185761330d6000826132e1565b6001810190506132fa565b5050565b601f82111561335d5761332e816131fd565b61333784613212565b81016020851015613346578190505b61335a61335285613212565b8301826132f9565b50505b505050565b600082821c905092915050565b600061338060001984600802613362565b1980831691505092915050565b6000613399838361336f565b9150826002028217905092915050565b6133b282612765565b67ffffffffffffffff8111156133cb576133ca61294c565b5b6133d58254612f84565b6133e082828561331c565b600060209050601f8311600181146134135760008415613401578287015190505b61340b858261338d565b865550613473565b601f198416613421866131fd565b60005b8281101561344957848901518255600182019150602085019450602081019050613424565b868310156134665784890151613462601f89168261336f565b8355505b6001600288020188555050505b505050505050565b7f4552433732313a2063616c6c6572206973206e6f7420746f6b656e206f776e6560008201527f72206f7220617070726f76656400000000000000000000000000000000000000602082015250565b60006134d7602d83612770565b91506134e28261347b565b604082019050919050565b60006020820190508181036000830152613506816134ca565b9050919050565b7f4552433732313a20696e76616c696420746f6b656e2049440000000000000000600082015250565b6000613543601883612770565b915061354e8261350d565b602082019050919050565b6000602082019050818103600083015261357281613536565b9050919050565b7f4552433732313a2061646472657373207a65726f206973206e6f74206120766160008201527f6c6964206f776e65720000000000000000000000000000000000000000000000602082015250565b60006135d5602983612770565b91506135e082613579565b604082019050919050565b60006020820190508181036000830152613604816135c8565b9050919050565b7f4e487b7100000000000000000000000000000000000000000000000000000000600052601160045260246000fd5b600061364582612817565b91507fffffffffffffffffffffffffffffffffffffffffffffffffffffffffffffffff82036136775761367661360b565b5b600182019050919050565b600081905092915050565b600061369882612765565b6136a28185613682565b93506136b2818560208601612781565b80840191505092915050565b60006136ca828561368d565b91506136d6828461368d565b91508190509392505050565b7f596f752061726520687465206f776e6572000000000000000000000000000000600082015250565b6000613718601183612770565b9150613723826136e2565b602082019050919050565b600060208201905081810360008301526137478161370b565b9050919050565b7f4c616e64206973206e6f7420666f722073616c65000000000000000000000000600082015250565b6000613784601483612770565b915061378f8261374e565b602082019050919050565b600060208201905081810360008301526137b381613777565b9050919050565b7f53656e742065746865722076616c756520646f6573206e6f74206d617463682060008201527f6c616e6420636f73740000000000000000000000000000000000000000000000602082015250565b6000613816602983612770565b9150613821826137ba565b604082019050919050565b6000602082019050818103600083015261384581613809565b9050919050565b60006040820190506138616000830185612b66565b61386e60208301846128ac565b9392505050565b7f4f6e6c79206c616e6420696e73706563746f722063616e20766572696679207460008201527f6865206c616e6400000000000000000000000000000000000000000000000000602082015250565b60006138d1602783612770565b91506138dc82613875565b604082019050919050565b60006020820190508181036000830152613900816138c4565b9050919050565b7f4c616e6420646f6573206e6f7420657869737400000000000000000000000000600082015250565b600061393d601383612770565b915061394882613907565b602082019050919050565b6000602082019050818103600083015261396c81613930565b9050919050565b7f4552433732313a207472616e736665722066726f6d20696e636f72726563742060008201527f6f776e6572000000000000000000000000000000000000000000000000000000602082015250565b60006139cf602583612770565b91506139da82613973565b604082019050919050565b600060208201905081810360008301526139fe816139c2565b9050919050565b7f4552433732313a207472616e7366657220746f20746865207a65726f2061646460008201527f7265737300000000000000000000000000000000000000000000000000000000602082015250565b6000613a61602483612770565b9150613a6c82613a05565b604082019050919050565b60006020820190508181036000830152613a9081613a54565b9050919050565b7f4552433732313a206d696e7420746f20746865207a65726f2061646472657373600082015250565b6000613acd602083612770565b9150613ad882613a97565b602082019050919050565b60006020820190508181036000830152613afc81613ac0565b9050919050565b7f4552433732313a20746f6b656e20616c7265616479206d696e74656400000000600082015250565b6000613b39601c83612770565b9150613b4482613b03565b602082019050919050565b60006020820190508181036000830152613b6881613b2c565b9050919050565b7f4552433732313a20617070726f766520746f2063616c6c657200000000000000600082015250565b6000613ba5601983612770565b9150613bb082613b6f565b602082019050919050565b60006020820190508181036000830152613bd481613b98565b9050919050565b7f4552433732313a207472616e7366657220746f206e6f6e20455243373231526560008201527f63656976657220696d706c656d656e7465720000000000000000000000000000602082015250565b6000613c37603283612770565b9150613c4282613bdb565b604082019050919050565b60006020820190508181036000830152613c6681613c2a565b9050919050565b7f4e487b7100000000000000000000000000000000000000000000000000000000600052601260045260246000fd5b600081519050919050565b600082825260208201905092915050565b6000613cc382613c9c565b613ccd8185613ca7565b9350613cdd818560208601612781565b613ce6816127ab565b840191505092915050565b6000608082019050613d0660008301876128ac565b613d1360208301866128ac565b613d206040830185612b66565b8181036060830152613d328184613cb8565b905095945050505050565b600081519050613d4c816126d6565b92915050565b600060208284031215613d6857613d676126a0565b5b6000613d7684828501613d3d565b9150509291505056fea26469706673582212208c4887faf41256cfdce35bc3de209c4c90450922b1f24fe53926d660b8b8de7a64736f6c63430008120033",
  "immutableReferences": {},
  "source": "// SPDX-License-Identifier: MIT\npragma solidity ^0.8.0;\n\nimport \"@openzeppelin/contracts/token/ERC721/ERC721.sol\";\n\ncontract LandRegistration is ERC721 {\n    struct Land {\n        uint256 area;\n        uint256 cost;\n        string addressStr;\n        address owner;\n        bool isVerified;\n        bool isForSale;\n        string documentHash;\n        string imageHash;\n    }\n\n    address public Inspector =\n        address(0x076Df2f4567bd872964Baa8354e07370FE634F3F);// Add ur address\n    mapping(uint256 => Land) public lands;\n    uint256 public landCount = 0;\n\n    event LandCreated(uint256 landId);\n    event LandVerified(uint256 landId);\n    event LandPutOnSale(uint256 landId);\n    event LandBought(uint256 landId, address buyer);\n\n    constructor() ERC721(\"LandRegistration\", \"LAND\") {}\n\n    modifier landInspector() {\n        require(\n            Inspector == msg.sender,\n            \"Only land inspector can verify the land\"\n        );\n        _;\n    }\n\n    modifier landOwner(uint256 landId) {\n        require(\n            lands[landId].owner == msg.sender,\n            \"Only land owner can put land on sale\"\n        );\n        _;\n    }\n\n    function createLand(\n        uint256 area,\n        uint256 cost,\n        string memory addressStr,\n        string memory documentHash,\n        string memory imageHash\n    ) public {\n        landCount++;\n        lands[landCount] = Land(\n            area,\n            cost,\n            addressStr,\n            msg.sender,\n            false,\n            false,\n            documentHash,\n            imageHash\n        );\n        _mint(msg.sender, landCount);\n        emit LandCreated(landCount);\n    }\n\n    function verifyLand(uint256 landId) public landInspector {\n        lands[landId].isVerified = true;\n        emit LandVerified(landId);\n    }\n\n    function putLandOnSale(uint256 landId) public landOwner(landId) {\n        require(\n            lands[landId].isVerified == true,\n            \"Land must be verified before putting it on sale\"\n        );\n        lands[landId].isForSale = true;\n        emit LandPutOnSale(landId);\n    }\n\n    function buyLand(uint256 landId) public payable {\n        require(lands[landId].owner != msg.sender, \"You are hte owner\");\n        require(lands[landId].isForSale == true, \"Land is not for sale\");\n        require(\n            msg.value == lands[landId].cost,\n            \"Sent ether value does not match land cost\"\n        );\n        address payable oldOwner = payable(lands[landId].owner);\n        oldOwner.transfer(msg.value);\n        _transfer(oldOwner, msg.sender, landId);\n        lands[landId].owner = msg.sender;\n        lands[landId].isForSale = false;\n        emit LandBought(landId, msg.sender);\n    }\n\n    function sellLand(\n        uint256 landId,\n        uint256 cost,\n        string memory documentHash\n    ) public landOwner(landId) {\n        require(\n            lands[landId].isVerified == true,\n            \"Land must be verified before putting it on sale\"\n        );\n        lands[landId].cost = cost;\n        lands[landId].documentHash = documentHash;\n        lands[landId].isForSale = true;\n        emit LandPutOnSale(landId);\n    }\n\n    function getLandDetails(\n        uint256 landId\n    )\n        public\n        view\n        returns (\n            uint256 area,\n            uint256 cost,\n            string memory addressStr,\n            string memory documentHash,\n            string memory imageHash,\n            address owner,\n            bool isVerified,\n            bool isForSale\n        )\n    {\n        require(_exists(landId), \"Land does not exist\"); // check if land exists\n\n        Land storage land = lands[landId];\n\n        return (\n            land.area,\n            land.cost,\n            land.addressStr,\n            land.documentHash,\n            land.imageHash,\n            ownerOf(landId),\n            land.isVerified,\n            land.isForSale\n        );\n    }\n}\n",
  "sourcePath": "C:\\Users\\josep\\Downloads\\Land\\Land\\contracts\\LandRegistration.sol",
  "compiler": {
    "name": "solc",
    "version": "0.8.18+commit.87f61d96.Emscripten.clang"
  },
  "schemaVersion": "3.4.13",
  "updatedAt": "2023-05-14T09:57:12.461Z",
  "devdoc": {
    "events": {
      "Approval(address,address,uint256)": {
        "details": "Emitted when `owner` enables `approved` to manage the `tokenId` token."
      },
      "ApprovalForAll(address,address,bool)": {
        "details": "Emitted when `owner` enables or disables (`approved`) `operator` to manage all of its assets."
      },
      "Transfer(address,address,uint256)": {
        "details": "Emitted when `tokenId` token is transferred from `from` to `to`."
      }
    },
    "kind": "dev",
    "methods": {
      "approve(address,uint256)": {
        "details": "See {IERC721-approve}."
      },
      "balanceOf(address)": {
        "details": "See {IERC721-balanceOf}."
      },
      "getApproved(uint256)": {
        "details": "See {IERC721-getApproved}."
      },
      "isApprovedForAll(address,address)": {
        "details": "See {IERC721-isApprovedForAll}."
      },
      "name()": {
        "details": "See {IERC721Metadata-name}."
      },
      "ownerOf(uint256)": {
        "details": "See {IERC721-ownerOf}."
      },
      "safeTransferFrom(address,address,uint256)": {
        "details": "See {IERC721-safeTransferFrom}."
      },
      "safeTransferFrom(address,address,uint256,bytes)": {
        "details": "See {IERC721-safeTransferFrom}."
      },
      "setApprovalForAll(address,bool)": {
        "details": "See {IERC721-setApprovalForAll}."
      },
      "supportsInterface(bytes4)": {
        "details": "See {IERC165-supportsInterface}."
      },
      "symbol()": {
        "details": "See {IERC721Metadata-symbol}."
      },
      "tokenURI(uint256)": {
        "details": "See {IERC721Metadata-tokenURI}."
      },
      "transferFrom(address,address,uint256)": {
        "details": "See {IERC721-transferFrom}."
      }
    },
    "version": 1
  },
  "userdoc": {
    "kind": "user",
    "methods": {},
    "version": 1
  }
}